{
  "address": "0x8fCf9a6F6a817D4383124982371E1A821E09addE",
  "abi": [
    {
      "inputs": [
        {
          "internalType": "address",
          "name": "_ipModelContract",
          "type": "address"
        },
        {
          "internalType": "address",
          "name": "_recipient",
          "type": "address"
        }
      ],
      "stateMutability": "nonpayable",
      "type": "constructor"
    },
    {
      "anonymous": false,
      "inputs": [
        {
          "indexed": true,
          "internalType": "address",
          "name": "previousOwner",
          "type": "address"
        },
        {
          "indexed": true,
          "internalType": "address",
          "name": "newOwner",
          "type": "address"
        }
      ],
      "name": "OwnershipTransferred",
      "type": "event"
    },
    {
      "anonymous": false,
      "inputs": [
        {
          "indexed": true,
          "internalType": "address",
          "name": "oldRecipient",
          "type": "address"
        },
        {
          "indexed": true,
          "internalType": "address",
          "name": "newRecipient",
          "type": "address"
        }
      ],
      "name": "RecipientChanged",
      "type": "event"
    },
    {
      "anonymous": false,
      "inputs": [
        {
          "indexed": true,
          "internalType": "address",
          "name": "buyer",
          "type": "address"
        },
        {
          "indexed": true,
          "internalType": "uint256",
          "name": "groupId",
          "type": "uint256"
        },
        {
          "indexed": false,
          "internalType": "uint256",
          "name": "amount",
          "type": "uint256"
        },
        {
          "indexed": false,
          "internalType": "uint256",
          "name": "totalPrice",
          "type": "uint256"
        }
      ],
      "name": "TokensPurchased",
      "type": "event"
    },
    {
      "inputs": [
        {
          "internalType": "uint256",
          "name": "groupId",
          "type": "uint256"
        },
        {
          "internalType": "uint256",
          "name": "amount",
          "type": "uint256"
        }
      ],
      "name": "buyTokens",
      "outputs": [],
      "stateMutability": "nonpayable",
      "type": "function"
    },
    {
      "inputs": [
        {
          "internalType": "uint256",
          "name": "groupId",
          "type": "uint256"
        }
      ],
      "name": "getGroupDetails",
      "outputs": [
        {
          "internalType": "string",
          "name": "name",
          "type": "string"
        },
        {
          "internalType": "string",
          "name": "description",
          "type": "string"
        },
        {
          "internalType": "uint256",
          "name": "maxSupply",
          "type": "uint256"
        },
        {
          "internalType": "uint256",
          "name": "currentSupply",
          "type": "uint256"
        },
        {
          "internalType": "bool",
          "name": "isActive",
          "type": "bool"
        },
        {
          "internalType": "uint256",
          "name": "price",
          "type": "uint256"
        },
        {
          "internalType": "address",
          "name": "payToken",
          "type": "address"
        }
      ],
      "stateMutability": "view",
      "type": "function"
    },
    {
      "inputs": [],
      "name": "ipModelContract",
      "outputs": [
        {
          "internalType": "contract IIPModel",
          "name": "",
          "type": "address"
        }
      ],
      "stateMutability": "view",
      "type": "function"
    },
    {
      "inputs": [],
      "name": "owner",
      "outputs": [
        {
          "internalType": "address",
          "name": "",
          "type": "address"
        }
      ],
      "stateMutability": "view",
      "type": "function"
    },
    {
      "inputs": [],
      "name": "recipient",
      "outputs": [
        {
          "internalType": "address",
          "name": "",
          "type": "address"
        }
      ],
      "stateMutability": "view",
      "type": "function"
    },
    {
      "inputs": [],
      "name": "renounceOwnership",
      "outputs": [],
      "stateMutability": "nonpayable",
      "type": "function"
    },
    {
      "inputs": [
        {
          "internalType": "address",
          "name": "_recipient",
          "type": "address"
        }
      ],
      "name": "setRecipient",
      "outputs": [],
      "stateMutability": "nonpayable",
      "type": "function"
    },
    {
      "inputs": [
        {
          "internalType": "address",
          "name": "newOwner",
          "type": "address"
        }
      ],
      "name": "transferOwnership",
      "outputs": [],
      "stateMutability": "nonpayable",
      "type": "function"
    }
  ],
  "transactionHash": "0x2be6f02007b8a0ffd7302bf0c72efba78350eb3662e72a2012d2b7fe676655c8",
  "args": [
    "0xC27c894F4661A0FE5fF36341F298d33cd4876B44",
    "0xdD7Ad47da281b5aDBa6Dbd865E8488F3F01900E9"
  ],
  "numDeployments": 1,
  "solcInputHash": "7e6558a6c2b85eef50e28e4b705263de",
  "bytecode": "0x60a060405234801561001057600080fd5b50604051610d9d380380610d9d83398101604081905261002f916101ab565b6100383361013f565b600180556001600160a01b0382166100a55760405162461bcd60e51b815260206004820152602560248201527f4d61726b6574706c6163653a20496e76616c696420636f6e7472616374206164604482015264647265737360d81b60648201526084015b60405180910390fd5b6001600160a01b03811661010a5760405162461bcd60e51b815260206004820152602660248201527f4d61726b6574706c6163653a20496e76616c696420726563697069656e74206160448201526564647265737360d01b606482015260840161009c565b6001600160a01b03828116608052600280546001600160a01b0319169183169190911790556101383361013f565b50506101de565b600080546001600160a01b038381166001600160a01b0319831681178455604051919092169283917f8be0079c531659141344cd1fd0a4f28419497f9722a3daafe3b4186f6b6457e09190a35050565b80516001600160a01b03811681146101a657600080fd5b919050565b600080604083850312156101be57600080fd5b6101c78361018f565b91506101d56020840161018f565b90509250929050565b608051610b8f61020e6000396000818161010301528181610347015281816105fb01526106b70152610b8f6000f3fe608060405234801561001057600080fd5b50600436106100885760003560e01c80638da5cb5b1161005b5780638da5cb5b146100ed578063959d1aeb146100fe5780639de5e76a14610125578063f2fde38b1461014b57600080fd5b80633bbed4a01461008d57806366d003ac146100a2578063715018a6146100d25780637975ce28146100da575b600080fd5b6100a061009b366004610897565b61015e565b005b6002546100b5906001600160a01b031681565b6040516001600160a01b0390911681526020015b60405180910390f35b6100a0610222565b6100a06100e83660046108bb565b610236565b6000546001600160a01b03166100b5565b6100b57f000000000000000000000000000000000000000000000000000000000000000081565b6101386101333660046108dd565b6106aa565b6040516100c99796959493929190610946565b6100a0610159366004610897565b61075f565b6101666107d8565b6001600160a01b0381166101d05760405162461bcd60e51b815260206004820152602660248201527f4d61726b6574706c6163653a20496e76616c696420726563697069656e74206160448201526564647265737360d01b60648201526084015b60405180910390fd5b600280546001600160a01b038381166001600160a01b0319831681179093556040519116919082907f4a9d367b1b0cd787be10021f1c55cb49c9f2302334e6df35c9621005eb22251490600090a35050565b61022a6107d8565b6102346000610832565b565b6002600154036102885760405162461bcd60e51b815260206004820152601f60248201527f5265656e7472616e637947756172643a207265656e7472616e742063616c6c0060448201526064016101c7565b6002600155816102da5760405162461bcd60e51b815260206004820152601d60248201527f4d61726b6574706c6163653a20496e76616c69642067726f757020494400000060448201526064016101c7565b6000811161033d5760405162461bcd60e51b815260206004820152602a60248201527f4d61726b6574706c6163653a20416d6f756e74206d75737420626520677265616044820152690746572207468616e20360b41b60648201526084016101c7565b60008060008060007f00000000000000000000000000000000000000000000000000000000000000006001600160a01b03166399d4360f886040518263ffffffff1660e01b815260040161039391815260200190565b600060405180830381865afa1580156103b0573d6000803e3d6000fd5b505050506040513d6000823e601f3d908101601f191682016040526103d89190810190610a52565b9650965096509650965050508261043c5760405162461bcd60e51b815260206004820152602260248201527f4d61726b6574706c6163653a2047726f75702073616c65206e6f742061637469604482015261766560f01b60648201526084016101c7565b6000821161048c5760405162461bcd60e51b815260206004820152601a60248201527f4d61726b6574706c6163653a205072696365206e6f742073657400000000000060448201526064016101c7565b6001600160a01b0381166104ed5760405162461bcd60e51b815260206004820152602260248201527f4d61726b6574706c6163653a205061796d656e7420746f6b656e206e6f742073604482015261195d60f21b60648201526084016101c7565b841561054c57846104fe8786610b0e565b111561054c5760405162461bcd60e51b815260206004820152601f60248201527f4d61726b6574706c6163653a2045786365656473206d617820737570706c790060448201526064016101c7565b60006105588784610b27565b6002546040516323b872dd60e01b81523360048201526001600160a01b039182166024820152604481018390529192508316906323b872dd906064016020604051808303816000875af11580156105b3573d6000803e3d6000fd5b505050506040513d601f19601f820116820180604052508101906105d79190610b3e565b50604051630ab714fb60e11b815233600482015260248101899052604481018890527f00000000000000000000000000000000000000000000000000000000000000006001600160a01b03169063156e29f690606401600060405180830381600087803b15801561064757600080fd5b505af115801561065b573d6000803e3d6000fd5b5050604080518a8152602081018590528b93503392507f0d1a0d5e3d583a0e92588799dd06e50fd78c07daf05f0cc06d7b848b1ca445f1910160405180910390a3505060018055505050505050565b60608060008060008060007f00000000000000000000000000000000000000000000000000000000000000006001600160a01b03166399d4360f896040518263ffffffff1660e01b815260040161070391815260200190565b600060405180830381865afa158015610720573d6000803e3d6000fd5b505050506040513d6000823e601f3d908101601f191682016040526107489190810190610a52565b959e949d50929b5090995097509550909350915050565b6107676107d8565b6001600160a01b0381166107cc5760405162461bcd60e51b815260206004820152602660248201527f4f776e61626c653a206e6577206f776e657220697320746865207a65726f206160448201526564647265737360d01b60648201526084016101c7565b6107d581610832565b50565b6000546001600160a01b031633146102345760405162461bcd60e51b815260206004820181905260248201527f4f776e61626c653a2063616c6c6572206973206e6f7420746865206f776e657260448201526064016101c7565b600080546001600160a01b038381166001600160a01b0319831681178455604051919092169283917f8be0079c531659141344cd1fd0a4f28419497f9722a3daafe3b4186f6b6457e09190a35050565b6001600160a01b03811681146107d557600080fd5b6000602082840312156108a957600080fd5b81356108b481610882565b9392505050565b600080604083850312156108ce57600080fd5b50508035926020909101359150565b6000602082840312156108ef57600080fd5b5035919050565b60005b838110156109115781810151838201526020016108f9565b50506000910152565b600081518084526109328160208601602086016108f6565b601f01601f19169290920160200192915050565b60e08152600061095960e083018a61091a565b828103602084015261096b818a61091a565b604084019890985250506060810194909452911515608084015260a08301526001600160a01b031660c09091015292915050565b634e487b7160e01b600052604160045260246000fd5b600082601f8301126109c657600080fd5b815167ffffffffffffffff808211156109e1576109e161099f565b604051601f8301601f19908116603f01168101908282118183101715610a0957610a0961099f565b81604052838152866020858801011115610a2257600080fd5b610a338460208301602089016108f6565b9695505050505050565b80518015158114610a4d57600080fd5b919050565b600080600080600080600060e0888a031215610a6d57600080fd5b875167ffffffffffffffff80821115610a8557600080fd5b610a918b838c016109b5565b985060208a0151915080821115610aa757600080fd5b50610ab48a828b016109b5565b9650506040880151945060608801519350610ad160808901610a3d565b925060a0880151915060c0880151610ae881610882565b8091505092959891949750929550565b634e487b7160e01b600052601160045260246000fd5b80820180821115610b2157610b21610af8565b92915050565b8082028115828204841417610b2157610b21610af8565b600060208284031215610b5057600080fd5b6108b482610a3d56fea2646970667358221220a847bef050d05eee672b8bc747beaedc09e1261a148dd204e0eaa8ca2f94b33b64736f6c63430008180033",
  "devdoc": {
    "kind": "dev",
    "methods": {
      "owner()": {
        "details": "Returns the address of the current owner."
      },
      "renounceOwnership()": {
        "details": "Leaves the contract without owner. It will not be possible to call `onlyOwner` functions anymore. Can only be called by the current owner. NOTE: Renouncing ownership will leave the contract without an owner, thereby removing any functionality that is only available to the owner."
      },
      "transferOwnership(address)": {
        "details": "Transfers ownership of the contract to a new account (`newOwner`). Can only be called by the current owner."
      }
    },
    "version": 1
  },
  "userdoc": {
    "kind": "user",
    "methods": {},
    "version": 1
  },
  "storageLayout": {
    "storage": [
      {
        "astId": 7,
        "contract": "contracts/IPModleMarketplace.sol:IPModelMarketplace",
        "label": "_owner",
        "offset": 0,
        "slot": "0",
        "type": "t_address"
      },
      {
        "astId": 123,
        "contract": "contracts/IPModleMarketplace.sol:IPModelMarketplace",
        "label": "_status",
        "offset": 0,
        "slot": "1",
        "type": "t_uint256"
      },
      {
        "astId": 267,
        "contract": "contracts/IPModleMarketplace.sol:IPModelMarketplace",
        "label": "recipient",
        "offset": 0,
        "slot": "2",
        "type": "t_address"
      }
    ],
    "types": {
      "t_address": {
        "encoding": "inplace",
        "label": "address",
        "numberOfBytes": "20"
      },
      "t_uint256": {
        "encoding": "inplace",
        "label": "uint256",
        "numberOfBytes": "32"
      }
    }
  }
}