{
  "address": "0xC27c894F4661A0FE5fF36341F298d33cd4876B44",
  "abi": [
    {
      "inputs": [],
      "stateMutability": "nonpayable",
      "type": "constructor"
    },
    {
      "anonymous": false,
      "inputs": [
        {
          "indexed": true,
          "internalType": "address",
          "name": "account",
          "type": "address"
        },
        {
          "indexed": true,
          "internalType": "address",
          "name": "operator",
          "type": "address"
        },
        {
          "indexed": false,
          "internalType": "bool",
          "name": "approved",
          "type": "bool"
        }
      ],
      "name": "ApprovalForAll",
      "type": "event"
    },
    {
      "anonymous": false,
      "inputs": [
        {
          "indexed": true,
          "internalType": "uint256",
          "name": "groupId",
          "type": "uint256"
        },
        {
          "indexed": false,
          "internalType": "string",
          "name": "name",
          "type": "string"
        },
        {
          "indexed": false,
          "internalType": "uint256",
          "name": "maxSupply",
          "type": "uint256"
        }
      ],
      "name": "GroupCreated",
      "type": "event"
    },
    {
      "anonymous": false,
      "inputs": [
        {
          "indexed": true,
          "internalType": "address",
          "name": "minter",
          "type": "address"
        },
        {
          "indexed": false,
          "internalType": "bool",
          "name": "authorized",
          "type": "bool"
        }
      ],
      "name": "MinterAuthorized",
      "type": "event"
    },
    {
      "anonymous": false,
      "inputs": [
        {
          "indexed": true,
          "internalType": "address",
          "name": "previousOwner",
          "type": "address"
        },
        {
          "indexed": true,
          "internalType": "address",
          "name": "newOwner",
          "type": "address"
        }
      ],
      "name": "OwnershipTransferred",
      "type": "event"
    },
    {
      "anonymous": false,
      "inputs": [
        {
          "indexed": true,
          "internalType": "uint256",
          "name": "groupId",
          "type": "uint256"
        },
        {
          "indexed": true,
          "internalType": "address",
          "name": "to",
          "type": "address"
        },
        {
          "indexed": false,
          "internalType": "uint256",
          "name": "amount",
          "type": "uint256"
        }
      ],
      "name": "TokensMinted",
      "type": "event"
    },
    {
      "anonymous": false,
      "inputs": [
        {
          "indexed": true,
          "internalType": "address",
          "name": "operator",
          "type": "address"
        },
        {
          "indexed": true,
          "internalType": "address",
          "name": "from",
          "type": "address"
        },
        {
          "indexed": true,
          "internalType": "address",
          "name": "to",
          "type": "address"
        },
        {
          "indexed": false,
          "internalType": "uint256[]",
          "name": "ids",
          "type": "uint256[]"
        },
        {
          "indexed": false,
          "internalType": "uint256[]",
          "name": "values",
          "type": "uint256[]"
        }
      ],
      "name": "TransferBatch",
      "type": "event"
    },
    {
      "anonymous": false,
      "inputs": [
        {
          "indexed": true,
          "internalType": "address",
          "name": "operator",
          "type": "address"
        },
        {
          "indexed": true,
          "internalType": "address",
          "name": "from",
          "type": "address"
        },
        {
          "indexed": true,
          "internalType": "address",
          "name": "to",
          "type": "address"
        },
        {
          "indexed": false,
          "internalType": "uint256",
          "name": "id",
          "type": "uint256"
        },
        {
          "indexed": false,
          "internalType": "uint256",
          "name": "value",
          "type": "uint256"
        }
      ],
      "name": "TransferSingle",
      "type": "event"
    },
    {
      "anonymous": false,
      "inputs": [
        {
          "indexed": false,
          "internalType": "string",
          "name": "value",
          "type": "string"
        },
        {
          "indexed": true,
          "internalType": "uint256",
          "name": "id",
          "type": "uint256"
        }
      ],
      "name": "URI",
      "type": "event"
    },
    {
      "inputs": [
        {
          "internalType": "address",
          "name": "",
          "type": "address"
        }
      ],
      "name": "authorizedMinters",
      "outputs": [
        {
          "internalType": "bool",
          "name": "",
          "type": "bool"
        }
      ],
      "stateMutability": "view",
      "type": "function"
    },
    {
      "inputs": [
        {
          "internalType": "address",
          "name": "account",
          "type": "address"
        },
        {
          "internalType": "uint256",
          "name": "id",
          "type": "uint256"
        }
      ],
      "name": "balanceOf",
      "outputs": [
        {
          "internalType": "uint256",
          "name": "",
          "type": "uint256"
        }
      ],
      "stateMutability": "view",
      "type": "function"
    },
    {
      "inputs": [
        {
          "internalType": "address[]",
          "name": "accounts",
          "type": "address[]"
        },
        {
          "internalType": "uint256[]",
          "name": "ids",
          "type": "uint256[]"
        }
      ],
      "name": "balanceOfBatch",
      "outputs": [
        {
          "internalType": "uint256[]",
          "name": "",
          "type": "uint256[]"
        }
      ],
      "stateMutability": "view",
      "type": "function"
    },
    {
      "inputs": [],
      "name": "baseURI",
      "outputs": [
        {
          "internalType": "string",
          "name": "",
          "type": "string"
        }
      ],
      "stateMutability": "view",
      "type": "function"
    },
    {
      "inputs": [
        {
          "internalType": "string",
          "name": "name",
          "type": "string"
        },
        {
          "internalType": "string",
          "name": "description",
          "type": "string"
        },
        {
          "internalType": "uint256",
          "name": "maxSupply",
          "type": "uint256"
        },
        {
          "internalType": "uint256",
          "name": "price",
          "type": "uint256"
        },
        {
          "internalType": "address",
          "name": "payToken",
          "type": "address"
        }
      ],
      "name": "createGroup",
      "outputs": [
        {
          "internalType": "uint256",
          "name": "",
          "type": "uint256"
        }
      ],
      "stateMutability": "nonpayable",
      "type": "function"
    },
    {
      "inputs": [],
      "name": "getGroupCount",
      "outputs": [
        {
          "internalType": "uint256",
          "name": "",
          "type": "uint256"
        }
      ],
      "stateMutability": "view",
      "type": "function"
    },
    {
      "inputs": [
        {
          "internalType": "uint256",
          "name": "groupId",
          "type": "uint256"
        }
      ],
      "name": "getGroupInfo",
      "outputs": [
        {
          "internalType": "string",
          "name": "name",
          "type": "string"
        },
        {
          "internalType": "string",
          "name": "description",
          "type": "string"
        },
        {
          "internalType": "uint256",
          "name": "maxSupply",
          "type": "uint256"
        },
        {
          "internalType": "uint256",
          "name": "currentSupply",
          "type": "uint256"
        },
        {
          "internalType": "bool",
          "name": "isActive",
          "type": "bool"
        },
        {
          "internalType": "uint256",
          "name": "price",
          "type": "uint256"
        },
        {
          "internalType": "address",
          "name": "payToken",
          "type": "address"
        }
      ],
      "stateMutability": "view",
      "type": "function"
    },
    {
      "inputs": [
        {
          "internalType": "uint256",
          "name": "",
          "type": "uint256"
        }
      ],
      "name": "groupIds",
      "outputs": [
        {
          "internalType": "uint256",
          "name": "",
          "type": "uint256"
        }
      ],
      "stateMutability": "view",
      "type": "function"
    },
    {
      "inputs": [
        {
          "internalType": "address",
          "name": "account",
          "type": "address"
        },
        {
          "internalType": "address",
          "name": "operator",
          "type": "address"
        }
      ],
      "name": "isApprovedForAll",
      "outputs": [
        {
          "internalType": "bool",
          "name": "",
          "type": "bool"
        }
      ],
      "stateMutability": "view",
      "type": "function"
    },
    {
      "inputs": [
        {
          "internalType": "address",
          "name": "to",
          "type": "address"
        },
        {
          "internalType": "uint256",
          "name": "groupId",
          "type": "uint256"
        },
        {
          "internalType": "uint256",
          "name": "amount",
          "type": "uint256"
        }
      ],
      "name": "mint",
      "outputs": [],
      "stateMutability": "nonpayable",
      "type": "function"
    },
    {
      "inputs": [],
      "name": "owner",
      "outputs": [
        {
          "internalType": "address",
          "name": "",
          "type": "address"
        }
      ],
      "stateMutability": "view",
      "type": "function"
    },
    {
      "inputs": [],
      "name": "renounceOwnership",
      "outputs": [],
      "stateMutability": "nonpayable",
      "type": "function"
    },
    {
      "inputs": [
        {
          "internalType": "address",
          "name": "from",
          "type": "address"
        },
        {
          "internalType": "address",
          "name": "to",
          "type": "address"
        },
        {
          "internalType": "uint256[]",
          "name": "ids",
          "type": "uint256[]"
        },
        {
          "internalType": "uint256[]",
          "name": "amounts",
          "type": "uint256[]"
        },
        {
          "internalType": "bytes",
          "name": "data",
          "type": "bytes"
        }
      ],
      "name": "safeBatchTransferFrom",
      "outputs": [],
      "stateMutability": "nonpayable",
      "type": "function"
    },
    {
      "inputs": [
        {
          "internalType": "address",
          "name": "from",
          "type": "address"
        },
        {
          "internalType": "address",
          "name": "to",
          "type": "address"
        },
        {
          "internalType": "uint256",
          "name": "id",
          "type": "uint256"
        },
        {
          "internalType": "uint256",
          "name": "amount",
          "type": "uint256"
        },
        {
          "internalType": "bytes",
          "name": "data",
          "type": "bytes"
        }
      ],
      "name": "safeTransferFrom",
      "outputs": [],
      "stateMutability": "nonpayable",
      "type": "function"
    },
    {
      "inputs": [
        {
          "internalType": "address",
          "name": "operator",
          "type": "address"
        },
        {
          "internalType": "bool",
          "name": "approved",
          "type": "bool"
        }
      ],
      "name": "setApprovalForAll",
      "outputs": [],
      "stateMutability": "nonpayable",
      "type": "function"
    },
    {
      "inputs": [
        {
          "internalType": "address",
          "name": "minter",
          "type": "address"
        },
        {
          "internalType": "bool",
          "name": "authorized",
          "type": "bool"
        }
      ],
      "name": "setAuthorizedMinter",
      "outputs": [],
      "stateMutability": "nonpayable",
      "type": "function"
    },
    {
      "inputs": [
        {
          "internalType": "string",
          "name": "_baseURI",
          "type": "string"
        }
      ],
      "name": "setBaseURI",
      "outputs": [],
      "stateMutability": "nonpayable",
      "type": "function"
    },
    {
      "inputs": [
        {
          "internalType": "uint256",
          "name": "groupId",
          "type": "uint256"
        },
        {
          "internalType": "bool",
          "name": "active",
          "type": "bool"
        }
      ],
      "name": "setGroupActive",
      "outputs": [],
      "stateMutability": "nonpayable",
      "type": "function"
    },
    {
      "inputs": [
        {
          "internalType": "uint256",
          "name": "groupId",
          "type": "uint256"
        },
        {
          "internalType": "uint256",
          "name": "price",
          "type": "uint256"
        },
        {
          "internalType": "address",
          "name": "payToken",
          "type": "address"
        }
      ],
      "name": "setGroupPriceAndToken",
      "outputs": [],
      "stateMutability": "nonpayable",
      "type": "function"
    },
    {
      "inputs": [
        {
          "internalType": "bytes4",
          "name": "interfaceId",
          "type": "bytes4"
        }
      ],
      "name": "supportsInterface",
      "outputs": [
        {
          "internalType": "bool",
          "name": "",
          "type": "bool"
        }
      ],
      "stateMutability": "view",
      "type": "function"
    },
    {
      "inputs": [
        {
          "internalType": "uint256",
          "name": "",
          "type": "uint256"
        }
      ],
      "name": "tokenGroups",
      "outputs": [
        {
          "internalType": "uint256",
          "name": "id",
          "type": "uint256"
        },
        {
          "internalType": "string",
          "name": "name",
          "type": "string"
        },
        {
          "internalType": "string",
          "name": "description",
          "type": "string"
        },
        {
          "internalType": "uint256",
          "name": "maxSupply",
          "type": "uint256"
        },
        {
          "internalType": "uint256",
          "name": "currentSupply",
          "type": "uint256"
        },
        {
          "internalType": "bool",
          "name": "isActive",
          "type": "bool"
        },
        {
          "internalType": "uint256",
          "name": "price",
          "type": "uint256"
        },
        {
          "internalType": "address",
          "name": "payToken",
          "type": "address"
        }
      ],
      "stateMutability": "view",
      "type": "function"
    },
    {
      "inputs": [
        {
          "internalType": "address",
          "name": "newOwner",
          "type": "address"
        }
      ],
      "name": "transferOwnership",
      "outputs": [],
      "stateMutability": "nonpayable",
      "type": "function"
    },
    {
      "inputs": [
        {
          "internalType": "uint256",
          "name": "_tokenId",
          "type": "uint256"
        }
      ],
      "name": "uri",
      "outputs": [
        {
          "internalType": "string",
          "name": "",
          "type": "string"
        }
      ],
      "stateMutability": "view",
      "type": "function"
    }
  ],
  "transactionHash": "0xfefed9ddc9752747064334cb2e02494b74b215aa52db6815d83141e877b0e4b7",
  "args": [],
  "numDeployments": 1,
  "solcInputHash": "4197f5e5a4afb3c5e560e64ba14adaac",
  "bytecode": "0x60806040523480156200001157600080fd5b506040805180820190915260078152661254135bd9195b60ca1b60208201526200003b816200007c565b5062000047336200008e565b60016004556040805160208101909152600081526006906200006a908262000187565b5062000076336200008e565b62000253565b60026200008a828262000187565b5050565b600380546001600160a01b038381166001600160a01b0319831681179093556040519116919082907f8be0079c531659141344cd1fd0a4f28419497f9722a3daafe3b4186f6b6457e090600090a35050565b634e487b7160e01b600052604160045260246000fd5b600181811c908216806200010b57607f821691505b6020821081036200012c57634e487b7160e01b600052602260045260246000fd5b50919050565b601f82111562000182576000816000526020600020601f850160051c810160208610156200015d5750805b601f850160051c820191505b818110156200017e5782815560010162000169565b5050505b505050565b81516001600160401b03811115620001a357620001a3620000e0565b620001bb81620001b48454620000f6565b8462000132565b602080601f831160018114620001f35760008415620001da5750858301515b600019600386901b1c1916600185901b1785556200017e565b600085815260208120601f198616915b82811015620002245788860151825594840194600190910190840162000203565b5085821015620002435787850151600019600388901b60f8161c191681555b5050505050600190811b01905550565b61276780620002636000396000f3fe608060405234801561001057600080fd5b506004361061014c5760003560e01c8063715018a6116100c3578063aa2fe91b1161007c578063aa2fe91b146102e1578063e985e9c514610304578063e9afbcaa14610340578063ed58bad814610353578063f242432a14610366578063f2fde38b1461037957600080fd5b8063715018a61461024b57806388aea1ba146102535780638da5cb5b1461027a57806394d6882c1461029557806399d4360f146102a8578063a22cb465146102ce57600080fd5b8063156e29f611610115578063156e29f6146101d55780632eb2c2d6146101ea5780634093d7a1146101fd5780634e1273f41461021057806355f804b3146102305780636c0360eb1461024357600080fd5b8062fdd58e1461015157806301ffc9a714610177578063023daf3f1461019a57806306545a93146101ad5780630e89341c146101b5575b600080fd5b61016461015f366004611abc565b61038c565b6040519081526020015b60405180910390f35b61018a610185366004611afc565b610425565b604051901515815260200161016e565b6101646101a8366004611bd7565b610430565b600554610164565b6101c86101c3366004611c5f565b6105ae565b60405161016e9190611cc8565b6101e86101e3366004611cdb565b6106af565b005b6101e86101f8366004611da8565b610907565b61016461020b366004611c5f565b610953565b61022361021e366004611e52565b610974565b60405161016e9190611f59565b6101e861023e366004611f6c565b610a96565b6101c8610aae565b6101e8610b3c565b610266610261366004611c5f565b610b50565b60405161016e989796959493929190611fa1565b6003546040516001600160a01b03909116815260200161016e565b6101e86102a3366004612004565b610cae565b6102bb6102b6366004611c5f565b610d3f565b60405161016e9796959493929190612039565b6101e86102dc3660046120a2565b610f22565b61018a6102ef3660046120d5565b60086020526000908152604090205460ff1681565b61018a6103123660046120f0565b6001600160a01b03918216600090815260016020908152604080832093909416825291909152205460ff1690565b6101e861034e36600461211a565b610f2d565b6101e86103613660046120a2565b610fd3565b6101e861037436600461213d565b611090565b6101e86103873660046120d5565b6110d5565b60006001600160a01b0383166103fc5760405162461bcd60e51b815260206004820152602a60248201527f455243313135353a2061646472657373207a65726f206973206e6f742061207660448201526930b634b21037bbb732b960b11b60648201526084015b60405180910390fd5b506000818152602081815260408083206001600160a01b03861684529091529020545b92915050565b600061041f8261114e565b600061043a61119e565b60048054908190600061044c836121b8565b9091555050604080516101008101825282815260208082018a81528284018a905260608301899052600060808401819052600160a0850181905260c085018a90526001600160a01b03891660e0860152868252600790935293909320825181559251919291908201906104bf9082612258565b50604082015160028201906104d49082612258565b50606082015160038201556080820151600482015560a08201516005808301805460ff19169215159290921790915560c0830151600683015560e090920151600790910180546001600160a01b0319166001600160a01b0390921691909117905580546001810182556000919091527f036b6384b5eca791c62761152d0c79bb0604c104a5fb6f4eb0703f3154bb3db00181905560405181907fad96ee039a6b79065f1253caad335f597fa804a70b4761bf46f0554eec68c1c79061059c908a908990612318565b60405180910390a29695505050505050565b60008181526007602052604090206005015460609060ff16806105e1575060008281526007602052604090206004015415155b6106395760405162461bcd60e51b815260206004820152602360248201527f49504d6f64656c3a20546f6b656e2067726f757020646f6573206e6f742065786044820152621a5cdd60ea1b60648201526084016103f3565b60068054610646906121d1565b905060000361066357505060408051602081019091526000815290565b600082815260076020526040902054600661067d826111f8565b610686856111f8565b60405160200161069893929190612356565b604051602081830303815290604052915050919050565b336106c26003546001600160a01b031690565b6001600160a01b031614806106e657503360009081526008602052604090205460ff165b6107325760405162461bcd60e51b815260206004820152601f60248201527f49504d6f64656c3a204e6f7420617574686f72697a656420746f206d696e740060448201526064016103f3565b60008281526007602052604090206005015460ff166107935760405162461bcd60e51b815260206004820152601c60248201527f49504d6f64656c3a2047726f7570206973206e6f74206163746976650000000060448201526064016103f3565b600081116107f25760405162461bcd60e51b815260206004820152602660248201527f49504d6f64656c3a20416d6f756e74206d75737420626520677265617465722060448201526507468616e20360d41b60648201526084016103f3565b6000828152600760205260409020600301541561087b576000828152600760205260409020600381015460049091015461082d908390612408565b111561087b5760405162461bcd60e51b815260206004820152601f60248201527f49504d6f64656c3a2045786365656473206d6178696d756d20737570706c790060448201526064016103f3565b6000828152600760205260408120600401805483929061089c908490612408565b925050819055506108be83838360405180602001604052806000815250611301565b826001600160a01b0316827f5c8e94c72da12a6d6a1213edafd788896df5fd2d6527a9adeb11f8e5d0be1c4c836040516108fa91815260200190565b60405180910390a3505050565b6001600160a01b03851633148061092357506109238533610312565b61093f5760405162461bcd60e51b81526004016103f39061241b565b61094c8585858585611415565b5050505050565b6005818154811061096357600080fd5b600091825260209091200154905081565b606081518351146109d95760405162461bcd60e51b815260206004820152602960248201527f455243313135353a206163636f756e747320616e6420696473206c656e677468604482015268040dad2e6dac2e8c6d60bb1b60648201526084016103f3565b6000835167ffffffffffffffff8111156109f5576109f5611b20565b604051908082528060200260200182016040528015610a1e578160200160208202803683370190505b50905060005b8451811015610a8e57610a69858281518110610a4257610a4261246a565b6020026020010151858381518110610a5c57610a5c61246a565b602002602001015161038c565b828281518110610a7b57610a7b61246a565b6020908102919091010152600101610a24565b509392505050565b610a9e61119e565b6006610aaa8282612258565b5050565b60068054610abb906121d1565b80601f0160208091040260200160405190810160405280929190818152602001828054610ae7906121d1565b8015610b345780601f10610b0957610100808354040283529160200191610b34565b820191906000526020600020905b815481529060010190602001808311610b1757829003601f168201915b505050505081565b610b4461119e565b610b4e60006115eb565b565b60076020526000908152604090208054600182018054919291610b72906121d1565b80601f0160208091040260200160405190810160405280929190818152602001828054610b9e906121d1565b8015610beb5780601f10610bc057610100808354040283529160200191610beb565b820191906000526020600020905b815481529060010190602001808311610bce57829003601f168201915b505050505090806002018054610c00906121d1565b80601f0160208091040260200160405190810160405280929190818152602001828054610c2c906121d1565b8015610c795780601f10610c4e57610100808354040283529160200191610c79565b820191906000526020600020905b815481529060010190602001808311610c5c57829003601f168201915b50505060038401546004850154600586015460068701546007909701549596929591945060ff1692506001600160a01b031688565b610cb661119e565b6000838152600760205260408120549003610d055760405162461bcd60e51b815260206004820152600f60248201526e11dc9bdd5c081b9bdd08195e1a5cdd608a1b60448201526064016103f3565b60009283526007602081905260409093206006810192909255910180546001600160a01b0319166001600160a01b03909216919091179055565b606080600080600080600080600760008a81526020019081526020016000206040518061010001604052908160008201548152602001600182018054610d84906121d1565b80601f0160208091040260200160405190810160405280929190818152602001828054610db0906121d1565b8015610dfd5780601f10610dd257610100808354040283529160200191610dfd565b820191906000526020600020905b815481529060010190602001808311610de057829003601f168201915b50505050508152602001600282018054610e16906121d1565b80601f0160208091040260200160405190810160405280929190818152602001828054610e42906121d1565b8015610e8f5780601f10610e6457610100808354040283529160200191610e8f565b820191906000526020600020905b815481529060010190602001808311610e7257829003601f168201915b505050918352505060038201546020808301919091526004830154604080840191909152600584015460ff16151560608085019190915260068501546080808601919091526007909501546001600160a01b031660a094850152918501519085015191850151938501519285015160c086015160e090960151919f929e50939c50919a5091985091965090945092505050565b610aaa33838361163d565b610f3561119e565b600082815260076020526040902060030154151580610f64575060008281526007602052604090206004015415155b610fb05760405162461bcd60e51b815260206004820152601d60248201527f49504d6f64656c3a2047726f757020646f6573206e6f7420657869737400000060448201526064016103f3565b600091825260076020526040909120600501805460ff1916911515919091179055565b610fdb61119e565b6001600160a01b0382166110315760405162461bcd60e51b815260206004820152601f60248201527f49504d6f64656c3a20496e76616c6964206d696e74657220616464726573730060448201526064016103f3565b6001600160a01b038216600081815260086020908152604091829020805460ff191685151590811790915591519182527f9041c22ed79d1c19c69cc22fd9e38c93da4f2dd8cd32580594e232a8a18541cb910160405180910390a25050565b6001600160a01b0385163314806110ac57506110ac8533610312565b6110c85760405162461bcd60e51b81526004016103f39061241b565b61094c8585858585611715565b6110dd61119e565b6001600160a01b0381166111425760405162461bcd60e51b815260206004820152602660248201527f4f776e61626c653a206e6577206f776e657220697320746865207a65726f206160448201526564647265737360d01b60648201526084016103f3565b61114b816115eb565b50565b60006001600160e01b03198216636cdb3d1360e11b148061117f57506001600160e01b031982166303a24d0760e21b145b8061041f57506301ffc9a760e01b6001600160e01b031983161461041f565b6003546001600160a01b03163314610b4e5760405162461bcd60e51b815260206004820181905260248201527f4f776e61626c653a2063616c6c6572206973206e6f7420746865206f776e657260448201526064016103f3565b60608160000361121f5750506040805180820190915260018152600360fc1b602082015290565b8160005b81156112495780611233816121b8565b91506112429050600a83612496565b9150611223565b60008167ffffffffffffffff81111561126457611264611b20565b6040519080825280601f01601f19166020018201604052801561128e576020820181803683370190505b5090505b84156112f9576112a36001836124aa565b91506112b0600a866124bd565b6112bb906030612408565b60f81b8183815181106112d0576112d061246a565b60200101906001600160f81b031916908160001a9053506112f2600a86612496565b9450611292565b949350505050565b6001600160a01b0384166113615760405162461bcd60e51b815260206004820152602160248201527f455243313135353a206d696e7420746f20746865207a65726f206164647265736044820152607360f81b60648201526084016103f3565b33600061136d8561183f565b9050600061137a8561183f565b90506000868152602081815260408083206001600160a01b038b168452909152812080548792906113ac908490612408565b909155505060408051878152602081018790526001600160a01b03808a1692600092918716917fc3d58168c5ae7397731d063d5bbf3d657854427343f4c083240f7aacaa2d0f62910160405180910390a461140c8360008989898961188a565b50505050505050565b81518351146114775760405162461bcd60e51b815260206004820152602860248201527f455243313135353a2069647320616e6420616d6f756e7473206c656e677468206044820152670dad2e6dac2e8c6d60c31b60648201526084016103f3565b6001600160a01b03841661149d5760405162461bcd60e51b81526004016103f3906124d1565b3360005b845181101561157d5760008582815181106114be576114be61246a565b6020026020010151905060008583815181106114dc576114dc61246a565b602090810291909101810151600084815280835260408082206001600160a01b038e16835290935291909120549091508181101561152c5760405162461bcd60e51b81526004016103f390612516565b6000838152602081815260408083206001600160a01b038e8116855292528083208585039055908b16825281208054849290611569908490612408565b9091555050600190930192506114a1915050565b50846001600160a01b0316866001600160a01b0316826001600160a01b03167f4a39dc06d4c0dbc64b70af90fd698a233a518aa5d07e595d983b8c0526c8f7fb87876040516115cd929190612560565b60405180910390a46115e38187878787876119e5565b505050505050565b600380546001600160a01b038381166001600160a01b0319831681179093556040519116919082907f8be0079c531659141344cd1fd0a4f28419497f9722a3daafe3b4186f6b6457e090600090a35050565b816001600160a01b0316836001600160a01b0316036116b05760405162461bcd60e51b815260206004820152602960248201527f455243313135353a2073657474696e6720617070726f76616c20737461747573604482015268103337b91039b2b63360b91b60648201526084016103f3565b6001600160a01b03838116600081815260016020908152604080832094871680845294825291829020805460ff191686151590811790915591519182527f17307eab39ab6107e8899845ad3d59bd9653f200f220920489ca2b5937696c3191016108fa565b6001600160a01b03841661173b5760405162461bcd60e51b81526004016103f3906124d1565b3360006117478561183f565b905060006117548561183f565b90506000868152602081815260408083206001600160a01b038c168452909152902054858110156117975760405162461bcd60e51b81526004016103f390612516565b6000878152602081815260408083206001600160a01b038d8116855292528083208985039055908a168252812080548892906117d4908490612408565b909155505060408051888152602081018890526001600160a01b03808b16928c821692918816917fc3d58168c5ae7397731d063d5bbf3d657854427343f4c083240f7aacaa2d0f62910160405180910390a4611834848a8a8a8a8a61188a565b505050505050505050565b604080516001808252818301909252606091600091906020808301908036833701905050905082816000815181106118795761187961246a565b602090810291909101015292915050565b6001600160a01b0384163b156115e35760405163f23a6e6160e01b81526001600160a01b0385169063f23a6e61906118ce908990899088908890889060040161258e565b6020604051808303816000875af1925050508015611909575060408051601f3d908101601f19168201909252611906918101906125c8565b60015b6119b5576119156125e5565b806308c379a00361194e5750611929612601565b806119345750611950565b8060405162461bcd60e51b81526004016103f39190611cc8565b505b60405162461bcd60e51b815260206004820152603460248201527f455243313135353a207472616e7366657220746f206e6f6e20455243313135356044820152732932b1b2b4bb32b91034b6b83632b6b2b73a32b960611b60648201526084016103f3565b6001600160e01b0319811663f23a6e6160e01b1461140c5760405162461bcd60e51b81526004016103f39061268b565b6001600160a01b0384163b156115e35760405163bc197c8160e01b81526001600160a01b0385169063bc197c8190611a2990899089908890889088906004016126d3565b6020604051808303816000875af1925050508015611a64575060408051601f3d908101601f19168201909252611a61918101906125c8565b60015b611a70576119156125e5565b6001600160e01b0319811663bc197c8160e01b1461140c5760405162461bcd60e51b81526004016103f39061268b565b80356001600160a01b0381168114611ab757600080fd5b919050565b60008060408385031215611acf57600080fd5b611ad883611aa0565b946020939093013593505050565b6001600160e01b03198116811461114b57600080fd5b600060208284031215611b0e57600080fd5b8135611b1981611ae6565b9392505050565b634e487b7160e01b600052604160045260246000fd5b601f8201601f1916810167ffffffffffffffff81118282101715611b5c57611b5c611b20565b6040525050565b600082601f830112611b7457600080fd5b813567ffffffffffffffff811115611b8e57611b8e611b20565b604051611ba5601f8301601f191660200182611b36565b818152846020838601011115611bba57600080fd5b816020850160208301376000918101602001919091529392505050565b600080600080600060a08688031215611bef57600080fd5b853567ffffffffffffffff80821115611c0757600080fd5b611c1389838a01611b63565b96506020880135915080821115611c2957600080fd5b50611c3688828901611b63565b9450506040860135925060608601359150611c5360808701611aa0565b90509295509295909350565b600060208284031215611c7157600080fd5b5035919050565b60005b83811015611c93578181015183820152602001611c7b565b50506000910152565b60008151808452611cb4816020860160208601611c78565b601f01601f19169290920160200192915050565b602081526000611b196020830184611c9c565b600080600060608486031215611cf057600080fd5b611cf984611aa0565b95602085013595506040909401359392505050565b600067ffffffffffffffff821115611d2857611d28611b20565b5060051b60200190565b600082601f830112611d4357600080fd5b81356020611d5082611d0e565b604051611d5d8282611b36565b80915083815260208101915060208460051b870101935086841115611d8157600080fd5b602086015b84811015611d9d5780358352918301918301611d86565b509695505050505050565b600080600080600060a08688031215611dc057600080fd5b611dc986611aa0565b9450611dd760208701611aa0565b9350604086013567ffffffffffffffff80821115611df457600080fd5b611e0089838a01611d32565b94506060880135915080821115611e1657600080fd5b611e2289838a01611d32565b93506080880135915080821115611e3857600080fd5b50611e4588828901611b63565b9150509295509295909350565b60008060408385031215611e6557600080fd5b823567ffffffffffffffff80821115611e7d57600080fd5b818501915085601f830112611e9157600080fd5b81356020611e9e82611d0e565b604051611eab8282611b36565b83815260059390931b8501820192828101915089841115611ecb57600080fd5b948201945b83861015611ef057611ee186611aa0565b82529482019490820190611ed0565b96505086013592505080821115611f0657600080fd5b50611f1385828601611d32565b9150509250929050565b60008151808452602080850194506020840160005b83811015611f4e57815187529582019590820190600101611f32565b509495945050505050565b602081526000611b196020830184611f1d565b600060208284031215611f7e57600080fd5b813567ffffffffffffffff811115611f9557600080fd5b6112f984828501611b63565b60006101008a8352806020840152611fbb8184018b611c9c565b90508281036040840152611fcf818a611c9c565b60608401989098525050608081019490945291151560a084015260c08301526001600160a01b031660e0909101529392505050565b60008060006060848603121561201957600080fd5b833592506020840135915061203060408501611aa0565b90509250925092565b60e08152600061204c60e083018a611c9c565b828103602084015261205e818a611c9c565b604084019890985250506060810194909452911515608084015260a08301526001600160a01b031660c09091015292915050565b80358015158114611ab757600080fd5b600080604083850312156120b557600080fd5b6120be83611aa0565b91506120cc60208401612092565b90509250929050565b6000602082840312156120e757600080fd5b611b1982611aa0565b6000806040838503121561210357600080fd5b61210c83611aa0565b91506120cc60208401611aa0565b6000806040838503121561212d57600080fd5b823591506120cc60208401612092565b600080600080600060a0868803121561215557600080fd5b61215e86611aa0565b945061216c60208701611aa0565b93506040860135925060608601359150608086013567ffffffffffffffff81111561219657600080fd5b611e4588828901611b63565b634e487b7160e01b600052601160045260246000fd5b6000600182016121ca576121ca6121a2565b5060010190565b600181811c908216806121e557607f821691505b60208210810361220557634e487b7160e01b600052602260045260246000fd5b50919050565b601f821115612253576000816000526020600020601f850160051c810160208610156122345750805b601f850160051c820191505b818110156115e357828155600101612240565b505050565b815167ffffffffffffffff81111561227257612272611b20565b6122868161228084546121d1565b8461220b565b602080601f8311600181146122bb57600084156122a35750858301515b600019600386901b1c1916600185901b1785556115e3565b600085815260208120601f198616915b828110156122ea578886015182559484019460019091019084016122cb565b50858210156123085787850151600019600388901b60f8161c191681555b5050505050600190811b01905550565b60408152600061232b6040830185611c9c565b90508260208301529392505050565b6000815161234c818560208601611c78565b9290920192915050565b6000808554612364816121d1565b6001828116801561237c5760018114612391576123c0565b60ff19841687528215158302870194506123c0565b8960005260208060002060005b858110156123b75781548a82015290840190820161239e565b50505082870194505b50505050602f60f81b815284516123de816001840160208901611c78565b6123fd6123f7600183850101602f60f81b815260010190565b8661233a565b979650505050505050565b8082018082111561041f5761041f6121a2565b6020808252602f908201527f455243313135353a2063616c6c6572206973206e6f7420746f6b656e206f776e60408201526e195c881b9bdc88185c1c1c9bdd9959608a1b606082015260800190565b634e487b7160e01b600052603260045260246000fd5b634e487b7160e01b600052601260045260246000fd5b6000826124a5576124a5612480565b500490565b8181038181111561041f5761041f6121a2565b6000826124cc576124cc612480565b500690565b60208082526025908201527f455243313135353a207472616e7366657220746f20746865207a65726f206164604082015264647265737360d81b606082015260800190565b6020808252602a908201527f455243313135353a20696e73756666696369656e742062616c616e636520666f60408201526939103a3930b739b332b960b11b606082015260800190565b6040815260006125736040830185611f1d565b82810360208401526125858185611f1d565b95945050505050565b6001600160a01b03868116825285166020820152604081018490526060810183905260a0608082018190526000906123fd90830184611c9c565b6000602082840312156125da57600080fd5b8151611b1981611ae6565b600060033d11156125fe5760046000803e5060005160e01c5b90565b600060443d101561260f5790565b6040516003193d81016004833e81513d67ffffffffffffffff816024840111818411171561263f57505050505090565b82850191508151818111156126575750505050505090565b843d87010160208285010111156126715750505050505090565b61268060208286010187611b36565b509095945050505050565b60208082526028908201527f455243313135353a204552433131353552656365697665722072656a656374656040820152676420746f6b656e7360c01b606082015260800190565b6001600160a01b0386811682528516602082015260a0604082018190526000906126ff90830186611f1d565b82810360608401526127118186611f1d565b905082810360808401526127258185611c9c565b9897505050505050505056fea26469706673582212204b33695b941d5ebc8ae1eb2ad4dd17138eae24aeec43907e8b83df86b3e1b88564736f6c63430008180033",
  "devdoc": {
    "events": {
      "ApprovalForAll(address,address,bool)": {
        "details": "Emitted when `account` grants or revokes permission to `operator` to transfer their tokens, according to `approved`."
      },
      "TransferBatch(address,address,address,uint256[],uint256[])": {
        "details": "Equivalent to multiple {TransferSingle} events, where `operator`, `from` and `to` are the same for all transfers."
      },
      "TransferSingle(address,address,address,uint256,uint256)": {
        "details": "Emitted when `value` tokens of token type `id` are transferred from `from` to `to` by `operator`."
      },
      "URI(string,uint256)": {
        "details": "Emitted when the URI for token type `id` changes to `value`, if it is a non-programmatic URI. If an {URI} event was emitted for `id`, the standard https://eips.ethereum.org/EIPS/eip-1155#metadata-extensions[guarantees] that `value` will equal the value returned by {IERC1155MetadataURI-uri}."
      }
    },
    "kind": "dev",
    "methods": {
      "balanceOf(address,uint256)": {
        "details": "See {IERC1155-balanceOf}. Requirements: - `account` cannot be the zero address."
      },
      "balanceOfBatch(address[],uint256[])": {
        "details": "See {IERC1155-balanceOfBatch}. Requirements: - `accounts` and `ids` must have the same length."
      },
      "isApprovedForAll(address,address)": {
        "details": "See {IERC1155-isApprovedForAll}."
      },
      "owner()": {
        "details": "Returns the address of the current owner."
      },
      "renounceOwnership()": {
        "details": "Leaves the contract without owner. It will not be possible to call `onlyOwner` functions anymore. Can only be called by the current owner. NOTE: Renouncing ownership will leave the contract without an owner, thereby removing any functionality that is only available to the owner."
      },
      "safeBatchTransferFrom(address,address,uint256[],uint256[],bytes)": {
        "details": "See {IERC1155-safeBatchTransferFrom}."
      },
      "safeTransferFrom(address,address,uint256,uint256,bytes)": {
        "details": "See {IERC1155-safeTransferFrom}."
      },
      "setApprovalForAll(address,bool)": {
        "details": "See {IERC1155-setApprovalForAll}."
      },
      "supportsInterface(bytes4)": {
        "details": "See {IERC165-supportsInterface}."
      },
      "transferOwnership(address)": {
        "details": "Transfers ownership of the contract to a new account (`newOwner`). Can only be called by the current owner."
      }
    },
    "version": 1
  },
  "userdoc": {
    "kind": "user",
    "methods": {},
    "version": 1
  },
  "storageLayout": {
    "storage": [
      {
        "astId": 138,
        "contract": "contracts/IPModel.sol:IPModel",
        "label": "_balances",
        "offset": 0,
        "slot": "0",
        "type": "t_mapping(t_uint256,t_mapping(t_address,t_uint256))"
      },
      {
        "astId": 144,
        "contract": "contracts/IPModel.sol:IPModel",
        "label": "_operatorApprovals",
        "offset": 0,
        "slot": "1",
        "type": "t_mapping(t_address,t_mapping(t_address,t_bool))"
      },
      {
        "astId": 146,
        "contract": "contracts/IPModel.sol:IPModel",
        "label": "_uri",
        "offset": 0,
        "slot": "2",
        "type": "t_string_storage"
      },
      {
        "astId": 7,
        "contract": "contracts/IPModel.sol:IPModel",
        "label": "_owner",
        "offset": 0,
        "slot": "3",
        "type": "t_address"
      },
      {
        "astId": 2185,
        "contract": "contracts/IPModel.sol:IPModel",
        "label": "_nextTokenId",
        "offset": 0,
        "slot": "4",
        "type": "t_uint256"
      },
      {
        "astId": 2188,
        "contract": "contracts/IPModel.sol:IPModel",
        "label": "groupIds",
        "offset": 0,
        "slot": "5",
        "type": "t_array(t_uint256)dyn_storage"
      },
      {
        "astId": 2190,
        "contract": "contracts/IPModel.sol:IPModel",
        "label": "baseURI",
        "offset": 0,
        "slot": "6",
        "type": "t_string_storage"
      },
      {
        "astId": 2212,
        "contract": "contracts/IPModel.sol:IPModel",
        "label": "tokenGroups",
        "offset": 0,
        "slot": "7",
        "type": "t_mapping(t_uint256,t_struct(TokenGroup)2207_storage)"
      },
      {
        "astId": 2216,
        "contract": "contracts/IPModel.sol:IPModel",
        "label": "authorizedMinters",
        "offset": 0,
        "slot": "8",
        "type": "t_mapping(t_address,t_bool)"
      }
    ],
    "types": {
      "t_address": {
        "encoding": "inplace",
        "label": "address",
        "numberOfBytes": "20"
      },
      "t_array(t_uint256)dyn_storage": {
        "base": "t_uint256",
        "encoding": "dynamic_array",
        "label": "uint256[]",
        "numberOfBytes": "32"
      },
      "t_bool": {
        "encoding": "inplace",
        "label": "bool",
        "numberOfBytes": "1"
      },
      "t_mapping(t_address,t_bool)": {
        "encoding": "mapping",
        "key": "t_address",
        "label": "mapping(address => bool)",
        "numberOfBytes": "32",
        "value": "t_bool"
      },
      "t_mapping(t_address,t_mapping(t_address,t_bool))": {
        "encoding": "mapping",
        "key": "t_address",
        "label": "mapping(address => mapping(address => bool))",
        "numberOfBytes": "32",
        "value": "t_mapping(t_address,t_bool)"
      },
      "t_mapping(t_address,t_uint256)": {
        "encoding": "mapping",
        "key": "t_address",
        "label": "mapping(address => uint256)",
        "numberOfBytes": "32",
        "value": "t_uint256"
      },
      "t_mapping(t_uint256,t_mapping(t_address,t_uint256))": {
        "encoding": "mapping",
        "key": "t_uint256",
        "label": "mapping(uint256 => mapping(address => uint256))",
        "numberOfBytes": "32",
        "value": "t_mapping(t_address,t_uint256)"
      },
      "t_mapping(t_uint256,t_struct(TokenGroup)2207_storage)": {
        "encoding": "mapping",
        "key": "t_uint256",
        "label": "mapping(uint256 => struct IPModel.TokenGroup)",
        "numberOfBytes": "32",
        "value": "t_struct(TokenGroup)2207_storage"
      },
      "t_string_storage": {
        "encoding": "bytes",
        "label": "string",
        "numberOfBytes": "32"
      },
      "t_struct(TokenGroup)2207_storage": {
        "encoding": "inplace",
        "label": "struct IPModel.TokenGroup",
        "members": [
          {
            "astId": 2192,
            "contract": "contracts/IPModel.sol:IPModel",
            "label": "id",
            "offset": 0,
            "slot": "0",
            "type": "t_uint256"
          },
          {
            "astId": 2194,
            "contract": "contracts/IPModel.sol:IPModel",
            "label": "name",
            "offset": 0,
            "slot": "1",
            "type": "t_string_storage"
          },
          {
            "astId": 2196,
            "contract": "contracts/IPModel.sol:IPModel",
            "label": "description",
            "offset": 0,
            "slot": "2",
            "type": "t_string_storage"
          },
          {
            "astId": 2198,
            "contract": "contracts/IPModel.sol:IPModel",
            "label": "maxSupply",
            "offset": 0,
            "slot": "3",
            "type": "t_uint256"
          },
          {
            "astId": 2200,
            "contract": "contracts/IPModel.sol:IPModel",
            "label": "currentSupply",
            "offset": 0,
            "slot": "4",
            "type": "t_uint256"
          },
          {
            "astId": 2202,
            "contract": "contracts/IPModel.sol:IPModel",
            "label": "isActive",
            "offset": 0,
            "slot": "5",
            "type": "t_bool"
          },
          {
            "astId": 2204,
            "contract": "contracts/IPModel.sol:IPModel",
            "label": "price",
            "offset": 0,
            "slot": "6",
            "type": "t_uint256"
          },
          {
            "astId": 2206,
            "contract": "contracts/IPModel.sol:IPModel",
            "label": "payToken",
            "offset": 0,
            "slot": "7",
            "type": "t_address"
          }
        ],
        "numberOfBytes": "256"
      },
      "t_uint256": {
        "encoding": "inplace",
        "label": "uint256",
        "numberOfBytes": "32"
      }
    }
  }
}